{
  "abi": [
    {
      "inputs": [
        {
          "internalType": "address",
          "name": "usdcAddress",
          "type": "address"
        },
        {
          "internalType": "uint256",
          "name": "_blockThreshold",
          "type": "uint256"
        },
        {
          "internalType": "contract IPermit2",
          "name": "_permit",
          "type": "address"
        },
        {
          "internalType": "address",
          "name": "_poolAddress",
          "type": "address"
        }
      ],
      "stateMutability": "nonpayable",
      "type": "constructor"
    },
    {
      "anonymous": false,
      "inputs": [
        {
          "indexed": true,
          "internalType": "uint256",
          "name": "insuranceID",
          "type": "uint256"
        }
      ],
      "name": "InsuranceClaimed",
      "type": "event"
    },
    {
      "anonymous": false,
      "inputs": [
        {
          "indexed": true,
          "internalType": "uint256",
          "name": "insuranceID",
          "type": "uint256"
        }
      ],
      "name": "InsuranceCreated",
      "type": "event"
    },
    {
      "anonymous": false,
      "inputs": [
        {
          "indexed": true,
          "internalType": "uint256",
          "name": "insuranceID",
          "type": "uint256"
        }
      ],
      "name": "InsuranceMadeClaimable",
      "type": "event"
    },
    {
      "anonymous": false,
      "inputs": [
        {
          "indexed": true,
          "internalType": "uint256",
          "name": "insuranceID",
          "type": "uint256"
        }
      ],
      "name": "InsuranceRefunded",
      "type": "event"
    },
    {
      "inputs": [],
      "name": "PERMIT2",
      "outputs": [
        {
          "internalType": "contract IPermit2",
          "name": "",
          "type": "address"
        }
      ],
      "stateMutability": "view",
      "type": "function"
    },
    {
      "inputs": [],
      "name": "approveUSDC",
      "outputs": [],
      "stateMutability": "nonpayable",
      "type": "function"
    },
    {
      "inputs": [],
      "name": "blockThreshold",
      "outputs": [
        {
          "internalType": "uint256",
          "name": "",
          "type": "uint256"
        }
      ],
      "stateMutability": "view",
      "type": "function"
    },
    {
      "inputs": [
        {
          "internalType": "uint256",
          "name": "insuranceID",
          "type": "uint256"
        }
      ],
      "name": "claimInsurance",
      "outputs": [],
      "stateMutability": "nonpayable",
      "type": "function"
    },
    {
      "inputs": [
        {
          "internalType": "uint256",
          "name": "coverAmount",
          "type": "uint256"
        },
        {
          "internalType": "uint256",
          "name": "deviationThreshold",
          "type": "uint256"
        },
        {
          "internalType": "uint256",
          "name": "ultravityRiskScore",
          "type": "uint256"
        },
        {
          "internalType": "bytes",
          "name": "txCallData",
          "type": "bytes"
        },
        {
          "internalType": "address",
          "name": "caller",
          "type": "address"
        },
        {
          "internalType": "address",
          "name": "to",
          "type": "address"
        },
        {
          "internalType": "uint256",
          "name": "simBlockNumber",
          "type": "uint256"
        },
        {
          "internalType": "uint256",
          "name": "nonce",
          "type": "uint256"
        },
        {
          "internalType": "uint256",
          "name": "deadline",
          "type": "uint256"
        },
        {
          "internalType": "bytes",
          "name": "signature",
          "type": "bytes"
        }
      ],
      "name": "createInsurance",
      "outputs": [],
      "stateMutability": "nonpayable",
      "type": "function"
    },
    {
      "inputs": [],
      "name": "insuranceCounter",
      "outputs": [
        {
          "internalType": "uint256",
          "name": "",
          "type": "uint256"
        }
      ],
      "stateMutability": "view",
      "type": "function"
    },
    {
      "inputs": [
        {
          "internalType": "uint256",
          "name": "",
          "type": "uint256"
        }
      ],
      "name": "insurances",
      "outputs": [
        {
          "internalType": "uint256",
          "name": "coverAmount",
          "type": "uint256"
        },
        {
          "internalType": "uint256",
          "name": "premiumAmount",
          "type": "uint256"
        },
        {
          "internalType": "uint256",
          "name": "deviationThreshold",
          "type": "uint256"
        },
        {
          "internalType": "uint256",
          "name": "ultravityRiskScore",
          "type": "uint256"
        },
        {
          "internalType": "bytes",
          "name": "txCallData",
          "type": "bytes"
        },
        {
          "internalType": "address",
          "name": "caller",
          "type": "address"
        },
        {
          "internalType": "address",
          "name": "to",
          "type": "address"
        },
        {
          "internalType": "uint256",
          "name": "blockNumber",
          "type": "uint256"
        },
        {
          "internalType": "bool",
          "name": "claimable",
          "type": "bool"
        },
        {
          "internalType": "bool",
          "name": "claimed",
          "type": "bool"
        },
        {
          "internalType": "bool",
          "name": "refunded",
          "type": "bool"
        }
      ],
      "stateMutability": "view",
      "type": "function"
    },
    {
      "inputs": [
        {
          "internalType": "uint256",
          "name": "insuranceID",
          "type": "uint256"
        }
      ],
      "name": "isRefundable",
      "outputs": [
        {
          "internalType": "bool",
          "name": "",
          "type": "bool"
        }
      ],
      "stateMutability": "view",
      "type": "function"
    },
    {
      "inputs": [
        {
          "internalType": "uint256",
          "name": "insuranceID",
          "type": "uint256"
        }
      ],
      "name": "makeInsuranceClaimable",
      "outputs": [],
      "stateMutability": "nonpayable",
      "type": "function"
    },
    {
      "inputs": [],
      "name": "owner",
      "outputs": [
        {
          "internalType": "address",
          "name": "",
          "type": "address"
        }
      ],
      "stateMutability": "view",
      "type": "function"
    },
    {
      "inputs": [],
      "name": "poolAddress",
      "outputs": [
        {
          "internalType": "address",
          "name": "",
          "type": "address"
        }
      ],
      "stateMutability": "view",
      "type": "function"
    },
    {
      "inputs": [
        {
          "internalType": "uint256",
          "name": "insuranceID",
          "type": "uint256"
        }
      ],
      "name": "refundInsurance",
      "outputs": [],
      "stateMutability": "nonpayable",
      "type": "function"
    },
    {
      "inputs": [
        {
          "internalType": "uint256",
          "name": "newBlockThreshold",
          "type": "uint256"
        }
      ],
      "name": "setBlockThreshold",
      "outputs": [],
      "stateMutability": "nonpayable",
      "type": "function"
    },
    {
      "inputs": [
        {
          "internalType": "address",
          "name": "newOwner",
          "type": "address"
        }
      ],
      "name": "setOwner",
      "outputs": [],
      "stateMutability": "nonpayable",
      "type": "function"
    },
    {
      "inputs": [
        {
          "internalType": "address",
          "name": "_poolAddress",
          "type": "address"
        }
      ],
      "name": "setPoolAddress",
      "outputs": [],
      "stateMutability": "nonpayable",
      "type": "function"
    },
    {
      "inputs": [
        {
          "internalType": "address",
          "name": "usdcAddress",
          "type": "address"
        }
      ],
      "name": "setUsdcToken",
      "outputs": [],
      "stateMutability": "nonpayable",
      "type": "function"
    },
    {
      "inputs": [],
      "name": "usdcToken",
      "outputs": [
        {
          "internalType": "contract IERC20",
          "name": "",
          "type": "address"
        }
      ],
      "stateMutability": "view",
      "type": "function"
    }
  ],
  "bytecode": {
    "object": "0x60a060405234801561001057600080fd5b50604051620014103803806200141083398101604081905261003191610099565b600080546001600160a01b039586166001600160a01b03199182161782556002805493871693821693909317909255600180549092163317909155600392909255600491909155166080526100ee565b6001600160a01b038116811461009657600080fd5b50565b600080600080608085870312156100af57600080fd5b84516100ba81610081565b6020860151604087015191955093506100d281610081565b60608601519092506100e381610081565b939692955090935050565b6080516112ff62000111600039600081816101f801526105d501526112ff6000f3fe608060405234801561001057600080fd5b506004361061010b5760003560e01c80635d886f22116100a25780638da5cb5b116100715780638da5cb5b1461022d5780639704309914610240578063cce6ef4414610253578063e9e15b4f14610276578063f85920d81461028957600080fd5b80635d886f22146101cd5780635f50a1ad146101e05780636afdd850146101f35780638a26972c1461021a57600080fd5b80631755ff21116100de5780631755ff211461017057806334eef84f146101835780634c41a6c71461019a57806359fb49f9146101a357600080fd5b806302150afa1461011057806311eac8551461011a57806313af40351461014a578063144897801461015d575b600080fd5b61011861029c565b005b60005461012d906001600160a01b031681565b6040516001600160a01b0390911681526020015b60405180910390f35b610118610158366004610e6a565b61031f565b61011861016b366004610f71565b610374565b60025461012d906001600160a01b031681565b61018c60045481565b604051908152602001610141565b61018c60035481565b6101b66101b136600461103f565b610706565b6040516101419b9a99989796959493929190611058565b6101186101db366004610e6a565b6107fc565b6101186101ee36600461103f565b610848565b61012d7f000000000000000000000000000000000000000000000000000000000000000081565b61011861022836600461103f565b610877565b60015461012d906001600160a01b031681565b61011861024e36600461103f565b610a09565b61026661026136600461103f565b610ad4565b6040519015158152602001610141565b610118610284366004610e6a565b610b1f565b61011861029736600461103f565b610b6b565b60005460025460405163095ea7b360e01b81526001600160a01b0391821660048201526000196024820181905292919091169063095ea7b3906044016020604051808303816000875af11580156102f7573d6000803e3d6000fd5b505050506040513d601f19601f8201168201806040525081019061031b9190611122565b5050565b6001546001600160a01b031633146103525760405162461bcd60e51b815260040161034990611144565b60405180910390fd5b600180546001600160a01b0319166001600160a01b0392909216919091179055565b6001546001600160a01b0316331461039e5760405162461bcd60e51b815260040161034990611144565b6003546103ab864361119b565b11156103f95760405162461bcd60e51b815260206004820152601860248201527f426c6f636b207468726573686f6c6420657863656564656400000000000000006044820152606401610349565b600480546000918261040a836111b2565b9190505590506000606490506000612710828f61042791906111cb565b61043191906111ea565b90506040518061016001604052808f81526020018281526020018e81526020018d81526020018c81526020018b6001600160a01b031681526020018a6001600160a01b0316815260200189815260200160001515815260200160001515815260200160001515815250600560008581526020019081526020016000206000820151816000015560208201518160010155604082015181600201556060820151816003015560808201518160040190805190602001906104f1929190610db5565b5060a0828101516005830180546001600160a01b03199081166001600160a01b039384161790915560c085015160068501805490921690831617905560e0840151600784015561010080850151600890940180546101208701516101409097015161ffff1990911695151561ff001916959095179515159091029490941762ff0000191662010000931515939093029290921790925560408051928301815260005482166060840190815260808401859052835260208084018b90528382018a90528151808301835260015484168152908101859052905163187945bd60e11b81527f0000000000000000000000000000000000000000000000000000000000000000909216926330f28b7a9261061192908f908b908b9060040161120c565b600060405180830381600087803b15801561062b57600080fd5b505af115801561063f573d6000803e3d6000fd5b50505050600260009054906101000a90046001600160a01b03166001600160a01b03166363faf6ee8d8f846040518463ffffffff1660e01b8152600401610699939291909283526020830191909152604082015260600190565b600060405180830381600087803b1580156106b357600080fd5b505af11580156106c7573d6000803e3d6000fd5b50506040518592507f3f2599beaab3d5998d583cb1e5668076bf7736565dc1e39afa8830291e22c28c9150600090a25050505050505050505050505050565b60056020526000908152604090208054600182015460028301546003840154600485018054949593949293919261073c9061128f565b80601f01602080910402602001604051908101604052809291908181526020018280546107689061128f565b80156107b55780601f1061078a576101008083540402835291602001916107b5565b820191906000526020600020905b81548152906001019060200180831161079857829003601f168201915b5050505060058301546006840154600785015460089095015493946001600160a01b03928316949290911692509060ff80821691610100810482169162010000909104168b565b6001546001600160a01b031633146108265760405162461bcd60e51b815260040161034990611144565b600080546001600160a01b0319166001600160a01b0392909216919091179055565b6001546001600160a01b031633146108725760405162461bcd60e51b815260040161034990611144565b600355565b600081815260056020526040902061088e82610ad4565b6108da5760405162461bcd60e51b815260206004820152601860248201527f496e737572616e6365206e6f7420726566756e6461626c6500000000000000006044820152606401610349565b60058101546001600160a01b031633146109415760405162461bcd60e51b815260206004820152602260248201527f4f6e6c792074686520696e73757265642063616c6c65722063616e20726566756044820152611b9960f21b6064820152608401610349565b60088101805462ff000019166201000017905560028054600383015491830154600184015460058501546040516322f23b3d60e11b81526004810195909552602485019290925260448401526001600160a01b03908116606484015216906345e4767a90608401600060405180830381600087803b1580156109c257600080fd5b505af11580156109d6573d6000803e3d6000fd5b50506040518492507fda681593562d51028848fa3a16b47926b7486ab26cb5ce521765069e6e6b16d89150600090a25050565b6001546001600160a01b03163314610a335760405162461bcd60e51b815260040161034990611144565b6000818152600560205260409020600881015460ff1615610a965760405162461bcd60e51b815260206004820152601b60248201527f496e737572616e636520616c726561647920636c61696d61626c6500000000006044820152606401610349565b60088101805460ff1916600117905560405182907fd972d4a1b2368fb261eace4cf3f2bc401e20f95316bb715e2beb66a67d1d166590600090a25050565b6000818152600560205260408120600881015462010000900460ff16158015610b0757506008810154610100900460ff16155b8015610b185750600881015460ff16155b9392505050565b6001546001600160a01b03163314610b495760405162461bcd60e51b815260040161034990611144565b600280546001600160a01b0319166001600160a01b0392909216919091179055565b60008181526005602052604090206008810154610100900460ff1615610bd35760405162461bcd60e51b815260206004820152601960248201527f496e737572616e636520616c726561647920636c61696d6564000000000000006044820152606401610349565b600881015462010000900460ff1615610c2e5760405162461bcd60e51b815260206004820152601a60248201527f496e737572616e636520616c726561647920726566756e6465640000000000006044820152606401610349565b600881015460ff16610c8c5760405162461bcd60e51b815260206004820152602160248201527f496e737572616e6365206e6f74206d61726b656420617320636c61696d61626c6044820152606560f81b6064820152608401610349565b60058101546001600160a01b03163314610cf25760405162461bcd60e51b815260206004820152602160248201527f4f6e6c792074686520696e73757265642063616c6c65722063616e20636c61696044820152606d60f81b6064820152608401610349565b60088101805461ff001916610100179055600280546003830154918301548354600585015460405163942465ed60e01b81526004810195909552602485019290925260448401526001600160a01b039081166064840152169063942465ed90608401600060405180830381600087803b158015610d6e57600080fd5b505af1158015610d82573d6000803e3d6000fd5b50506040518492507f8cf7594001e9865fe0b0f1ff5148ab49044f6fc6d101ea3012e0903d6390baf39150600090a25050565b828054610dc19061128f565b90600052602060002090601f016020900481019282610de35760008555610e29565b82601f10610dfc57805160ff1916838001178555610e29565b82800160010185558215610e29579182015b82811115610e29578251825591602001919060010190610e0e565b50610e35929150610e39565b5090565b5b80821115610e355760008155600101610e3a565b80356001600160a01b0381168114610e6557600080fd5b919050565b600060208284031215610e7c57600080fd5b610b1882610e4e565b634e487b7160e01b600052604160045260246000fd5b600082601f830112610eac57600080fd5b813567ffffffffffffffff80821115610ec757610ec7610e85565b604051601f8301601f19908116603f01168101908282118183101715610eef57610eef610e85565b81604052838152866020858801011115610f0857600080fd5b836020870160208301376000602085830101528094505050505092915050565b60008083601f840112610f3a57600080fd5b50813567ffffffffffffffff811115610f5257600080fd5b602083019150836020828501011115610f6a57600080fd5b9250929050565b60008060008060008060008060008060006101408c8e031215610f9357600080fd5b8b359a5060208c0135995060408c0135985067ffffffffffffffff8060608e01351115610fbf57600080fd5b610fcf8e60608f01358f01610e9b565b9850610fdd60808e01610e4e565b9750610feb60a08e01610e4e565b965060c08d0135955060e08d013594506101008d01359350806101208e0135111561101557600080fd5b506110278d6101208e01358e01610f28565b81935080925050509295989b509295989b9093969950565b60006020828403121561105157600080fd5b5035919050565b60006101608d835260208d818501528c60408501528b60608501528160808501528a518083860152600092505b808310156110a4578b8301820151858401610180015291810191611085565b808311156110b757600061018082870101525b601f01601f191684016101800192506110de91505060a08301896001600160a01b03169052565b6001600160a01b03871660c08301528560e083015261110261010083018615159052565b921515610120820152901515610140909101529998505050505050505050565b60006020828403121561113457600080fd5b81518015158114610b1857600080fd5b60208082526021908201527f4f6e6c79206f776e65722063616e2063616c6c20746869732066756e6374696f6040820152603760f91b606082015260800190565b634e487b7160e01b600052601160045260246000fd5b6000828210156111ad576111ad611185565b500390565b6000600182016111c4576111c4611185565b5060010190565b60008160001904831182151516156111e5576111e5611185565b500290565b60008261120757634e487b7160e01b600052601260045260246000fd5b500490565b855180516001600160a01b039081168352602091820151828401528188015160408085019190915288015160608401528651811660808401529086015160a0830152841660c082015261010060e08201819052810182905260006101208385828501376000838501820152601f909301601f191690910190910195945050505050565b600181811c908216806112a357607f821691505b6020821081036112c357634e487b7160e01b600052602260045260246000fd5b5091905056fea264697066735822122003f4bd37e6eb02596c1a61dfcf4da94cec04e6185739db8be02cc19421f7d63364736f6c634300080d0033",
    "linkReferences": {}
  },
  "methodIdentifiers": {
    "PERMIT2()": "6afdd850",
    "approveUSDC()": "02150afa",
    "blockThreshold()": "4c41a6c7",
    "claimInsurance(uint256)": "f85920d8",
    "createInsurance(uint256,uint256,uint256,bytes,address,address,uint256,uint256,uint256,bytes)": "14489780",
    "insuranceCounter()": "34eef84f",
    "insurances(uint256)": "59fb49f9",
    "isRefundable(uint256)": "cce6ef44",
    "makeInsuranceClaimable(uint256)": "97043099",
    "owner()": "8da5cb5b",
    "poolAddress()": "1755ff21",
    "refundInsurance(uint256)": "8a26972c",
    "setBlockThreshold(uint256)": "5f50a1ad",
    "setOwner(address)": "13af4035",
    "setPoolAddress(address)": "e9e15b4f",
    "setUsdcToken(address)": "5d886f22",
    "usdcToken()": "11eac855"
  },
  "id": 4
}