{
  "abi": [
    {
      "inputs": [
        {
          "internalType": "contract IERC20",
          "name": "_stakingToken",
          "type": "address"
        },
        {
          "internalType": "address",
          "name": "_router",
          "type": "address"
        }
      ],
      "stateMutability": "nonpayable",
      "type": "constructor"
    },
    {
      "inputs": [
        {
          "internalType": "address",
          "name": "newOwner",
          "type": "address"
        }
      ],
      "name": "changeOwner",
      "outputs": [],
      "stateMutability": "nonpayable",
      "type": "function"
    },
    {
      "inputs": [
        {
          "internalType": "uint256",
          "name": "ultravityScore",
          "type": "uint256"
        },
        {
          "internalType": "uint256",
          "name": "deviationThreshold",
          "type": "uint256"
        }
      ],
      "name": "getPool",
      "outputs": [
        {
          "components": [
            {
              "internalType": "uint256",
              "name": "baseRate",
              "type": "uint256"
            },
            {
              "internalType": "uint256",
              "name": "minPremium",
              "type": "uint256"
            },
            {
              "internalType": "uint256",
              "name": "deviationThreshold",
              "type": "uint256"
            },
            {
              "internalType": "uint256",
              "name": "score",
              "type": "uint256"
            },
            {
              "internalType": "uint256",
              "name": "totalStaked",
              "type": "uint256"
            },
            {
              "internalType": "uint256",
              "name": "totalValue",
              "type": "uint256"
            }
          ],
          "internalType": "struct Pools.Pool",
          "name": "",
          "type": "tuple"
        }
      ],
      "stateMutability": "view",
      "type": "function"
    },
    {
      "inputs": [
        {
          "internalType": "uint256",
          "name": "ultravityScore",
          "type": "uint256"
        },
        {
          "internalType": "uint256",
          "name": "deviationThreshold",
          "type": "uint256"
        }
      ],
      "name": "getPoolIndex",
      "outputs": [
        {
          "internalType": "uint8",
          "name": "",
          "type": "uint8"
        },
        {
          "internalType": "uint8",
          "name": "",
          "type": "uint8"
        }
      ],
      "stateMutability": "view",
      "type": "function"
    },
    {
      "inputs": [
        {
          "internalType": "uint256",
          "name": "ultravityScore",
          "type": "uint256"
        },
        {
          "internalType": "uint256",
          "name": "deviationThreshold",
          "type": "uint256"
        },
        {
          "internalType": "uint256",
          "name": "premium",
          "type": "uint256"
        }
      ],
      "name": "insure",
      "outputs": [],
      "stateMutability": "nonpayable",
      "type": "function"
    },
    {
      "inputs": [],
      "name": "owner",
      "outputs": [
        {
          "internalType": "address",
          "name": "",
          "type": "address"
        }
      ],
      "stateMutability": "view",
      "type": "function"
    },
    {
      "inputs": [
        {
          "internalType": "uint256",
          "name": "ultravityScore",
          "type": "uint256"
        },
        {
          "internalType": "uint256",
          "name": "deviationThreshold",
          "type": "uint256"
        },
        {
          "internalType": "uint256",
          "name": "claimAmount",
          "type": "uint256"
        },
        {
          "internalType": "address",
          "name": "recipient",
          "type": "address"
        }
      ],
      "name": "payClaim",
      "outputs": [],
      "stateMutability": "nonpayable",
      "type": "function"
    },
    {
      "inputs": [
        {
          "internalType": "uint8",
          "name": "",
          "type": "uint8"
        },
        {
          "internalType": "uint8",
          "name": "",
          "type": "uint8"
        }
      ],
      "name": "pools",
      "outputs": [
        {
          "internalType": "uint256",
          "name": "baseRate",
          "type": "uint256"
        },
        {
          "internalType": "uint256",
          "name": "minPremium",
          "type": "uint256"
        },
        {
          "internalType": "uint256",
          "name": "deviationThreshold",
          "type": "uint256"
        },
        {
          "internalType": "uint256",
          "name": "score",
          "type": "uint256"
        },
        {
          "internalType": "uint256",
          "name": "totalStaked",
          "type": "uint256"
        },
        {
          "internalType": "uint256",
          "name": "totalValue",
          "type": "uint256"
        }
      ],
      "stateMutability": "view",
      "type": "function"
    },
    {
      "inputs": [
        {
          "internalType": "uint256",
          "name": "ultravityScore",
          "type": "uint256"
        },
        {
          "internalType": "uint256",
          "name": "deviationThreshold",
          "type": "uint256"
        },
        {
          "internalType": "uint256",
          "name": "premium",
          "type": "uint256"
        },
        {
          "internalType": "address",
          "name": "recipient",
          "type": "address"
        }
      ],
      "name": "refundInsurance",
      "outputs": [],
      "stateMutability": "nonpayable",
      "type": "function"
    },
    {
      "inputs": [],
      "name": "router",
      "outputs": [
        {
          "internalType": "address",
          "name": "",
          "type": "address"
        }
      ],
      "stateMutability": "view",
      "type": "function"
    },
    {
      "inputs": [
        {
          "internalType": "uint8",
          "name": "scoreBucket",
          "type": "uint8"
        },
        {
          "internalType": "uint8",
          "name": "deviationBucket",
          "type": "uint8"
        },
        {
          "internalType": "uint256",
          "name": "baseRate",
          "type": "uint256"
        },
        {
          "internalType": "uint256",
          "name": "minPremium",
          "type": "uint256"
        }
      ],
      "name": "setPool",
      "outputs": [],
      "stateMutability": "nonpayable",
      "type": "function"
    },
    {
      "inputs": [
        {
          "internalType": "uint256",
          "name": "ultravityScore",
          "type": "uint256"
        },
        {
          "internalType": "uint256",
          "name": "deviationThreshold",
          "type": "uint256"
        },
        {
          "internalType": "uint256",
          "name": "baseRate",
          "type": "uint256"
        },
        {
          "internalType": "uint256",
          "name": "minPremium",
          "type": "uint256"
        }
      ],
      "name": "setPool",
      "outputs": [],
      "stateMutability": "nonpayable",
      "type": "function"
    },
    {
      "inputs": [
        {
          "internalType": "address",
          "name": "_router",
          "type": "address"
        }
      ],
      "name": "setRouter",
      "outputs": [],
      "stateMutability": "nonpayable",
      "type": "function"
    },
    {
      "inputs": [
        {
          "internalType": "uint256",
          "name": "amount",
          "type": "uint256"
        },
        {
          "internalType": "uint8",
          "name": "scoreBucket",
          "type": "uint8"
        },
        {
          "internalType": "uint8",
          "name": "deviationBucket",
          "type": "uint8"
        }
      ],
      "name": "stake",
      "outputs": [],
      "stateMutability": "nonpayable",
      "type": "function"
    },
    {
      "inputs": [
        {
          "internalType": "address",
          "name": "",
          "type": "address"
        },
        {
          "internalType": "uint8",
          "name": "",
          "type": "uint8"
        },
        {
          "internalType": "uint8",
          "name": "",
          "type": "uint8"
        }
      ],
      "name": "stakedAmountsByUser",
      "outputs": [
        {
          "internalType": "uint256",
          "name": "",
          "type": "uint256"
        }
      ],
      "stateMutability": "view",
      "type": "function"
    },
    {
      "inputs": [],
      "name": "stakingToken",
      "outputs": [
        {
          "internalType": "contract IERC20",
          "name": "",
          "type": "address"
        }
      ],
      "stateMutability": "view",
      "type": "function"
    },
    {
      "inputs": [
        {
          "internalType": "uint256",
          "name": "amount",
          "type": "uint256"
        },
        {
          "internalType": "uint8",
          "name": "scoreBucket",
          "type": "uint8"
        },
        {
          "internalType": "uint8",
          "name": "deviationBucket",
          "type": "uint8"
        }
      ],
      "name": "withdraw",
      "outputs": [],
      "stateMutability": "nonpayable",
      "type": "function"
    }
  ],
  "bytecode": {
    "object": "0x608060405234801561001057600080fd5b5060405161122038038061122083398101604081905261002f91610086565b600080546001600160a01b03199081163317909155600180546001600160a01b03938416908316179055600280549390921692169190911790556100c0565b6001600160a01b038116811461008357600080fd5b50565b6000806040838503121561009957600080fd5b82516100a48161006e565b60208401519092506100b58161006e565b809150509250929050565b611151806100cf6000396000f3fe608060405234801561001057600080fd5b50600436106101005760003560e01c8063a6f9dae111610097578063e36e989511610066578063e36e98951461024e578063e731ee87146102ad578063f462101e14610328578063f887ea401461033b57600080fd5b8063a6f9dae1146101d6578063ae12ed00146101e9578063c0d78655146101fc578063cb90a6601461020f57600080fd5b806381196340116100d3578063811963401461017057806382dc6bda1461019d5780638da5cb5b146101b0578063942465ed146101c357600080fd5b806345e4767a14610105578063592e19e11461011a57806363faf6ee1461012d57806372f702f314610140575b600080fd5b610118610113366004610de8565b61034e565b005b610118610128366004610e38565b61045e565b61011861013b366004610e74565b610573565b600254610153906001600160a01b031681565b6040516001600160a01b0390911681526020015b60405180910390f35b61018361017e366004610ea0565b610609565b6040805160ff938416815292909116602083015201610167565b6101186101ab366004610e38565b610667565b600054610153906001600160a01b031681565b6101186101d1366004610de8565b610718565b6101186101e4366004610ec2565b6107e1565b6101186101f7366004610ee4565b61082d565b61011861020a366004610ec2565b6108d2565b61024061021d366004610f26565b600460209081526000938452604080852082529284528284209052825290205481565b604051908152602001610167565b61026161025c366004610ea0565b61091e565b6040516101679190600060c082019050825182526020830151602083015260408301516040830152606083015160608301526080830151608083015260a083015160a083015292915050565b6102fb6102bb366004610f52565b6003602081815260009384526040808520909152918352912080546001820154600283015493830154600484015460059094015492949193919290919086565b604080519687526020870195909552938501929092526060840152608083015260a082015260c001610167565b610118610336366004610f85565b610a12565b600154610153906001600160a01b031681565b6000546001600160a01b031633146103815760405162461bcd60e51b815260040161037890610fb7565b60405180910390fd5b60008061038e8686610609565b60ff80831660009081526003602090815260408083209385168352929052206005810154929450909250908511156104255760405162461bcd60e51b815260206004820152603460248201527f4e6f7420656e6f7567682066756e647320696e2074686520706f6f6c20746f20604482015273726566756e642074686520696e737572616e636560601b6064820152608401610378565b84816005016000828254610439919061100e565b9091555050600254610455906001600160a01b03168587610ac4565b50505050505050565b33600090815260046020908152604080832060ff808716855290835281842090851684529091529020548311156104d75760405162461bcd60e51b815260206004820152601e60248201527f4e6f7420656e6f7567682062616c616e636520746f20776974686472617700006044820152606401610378565b60ff80831660008181526003602090815260408083209486168084529482528083203384526004835281842094845293825280832094835293905291822080549192869261052690849061100e565b9091555050600481015460009061053d9086611025565b905060008183600501546105519190611047565b60025490915061056b906001600160a01b03163383610ac4565b505050505050565b6000546001600160a01b0316331461059d5760405162461bcd60e51b815260040161037890610fb7565b6000806105aa8585610609565b60ff8083166000908152600360209081526040808320938516835292905220600254929450909250906105e8906001600160a01b0316333087610b2c565b838160050160008282546105fc9190611066565b9091555050505050505050565b60008060008060328610156106215760009150610638565b60508610156106335760019150610638565b600291505b600285116106485750600061065c565b600585116106585750600161065c565b5060025b909590945092505050565b60ff808316600090815260036020908152604080832093851683529290522060025461069e906001600160a01b0316333087610b2c565b33600090815260046020908152604080832060ff80881685529083528184209086168452909152812080548692906106d7908490611066565b92505081905550838160040160008282546106f29190611066565b925050819055508381600501600082825461070d9190611066565b909155505050505050565b6000546001600160a01b031633146107425760405162461bcd60e51b815260040161037890610fb7565b60008061074f8686610609565b60ff80831660009081526003602090815260408083209385168352929052206005810154929450909250908511156104255760405162461bcd60e51b815260206004820152602f60248201527f4e6f7420656e6f7567682066756e647320696e2074686520706f6f6c20746f2060448201526e636f7665722074686520636c61696d60881b6064820152608401610378565b6000546001600160a01b0316331461080b5760405162461bcd60e51b815260040161037890610fb7565b600080546001600160a01b0319166001600160a01b0392909216919091179055565b6000546001600160a01b031633146108575760405162461bcd60e51b815260040161037890610fb7565b6040805160c081018252928352602080840192835260ff948516848301818152969095166060850181815260006080870181815260a088018281529382526003808652868320998352989094529390932094518555925160018501559451600284015551928201929092559151600483015551600590910155565b6000546001600160a01b031633146108fc5760405162461bcd60e51b815260040161037890610fb7565b600180546001600160a01b0319166001600160a01b0392909216919091179055565b6109576040518060c001604052806000815260200160008152602001600081526020016000815260200160008152602001600081525090565b600080603285101561096c5760009150610983565b605085101561097e5760019150610983565b600291505b60028411610993575060006109a7565b600584116109a3575060016109a7565b5060025b60ff918216600090815260036020818152604080842094909516835292835290839020835160c0810185528154815260018201549381019390935260028101549383019390935282015460608201526004820154608082015260059091015460a08201529392505050565b6000546001600160a01b03163314610a3c5760405162461bcd60e51b815260040161037890610fb7565b600080610a498686610609565b6040805160c081018252968752602080880196875260ff9283168883018181529490931660608901818152600060808b0181815260a08c018281529382526003808652868320978352969094529390932098518955965160018901559251600288015551908601555160048501555050516005909101555050565b6040516001600160a01b038316602482015260448101829052610b2790849063a9059cbb60e01b906064015b60408051601f198184030181529190526020810180516001600160e01b03166001600160e01b031990931692909217909152610b6a565b505050565b6040516001600160a01b0380851660248301528316604482015260648101829052610b649085906323b872dd60e01b90608401610af0565b50505050565b6000610bbf826040518060400160405280602081526020017f5361666545524332303a206c6f772d6c6576656c2063616c6c206661696c6564815250856001600160a01b0316610c3c9092919063ffffffff16565b805190915015610b275780806020019051810190610bdd919061107e565b610b275760405162461bcd60e51b815260206004820152602a60248201527f5361666545524332303a204552433230206f7065726174696f6e20646964206e6044820152691bdd081cdd58d8d9595960b21b6064820152608401610378565b6060610c4b8484600085610c53565b949350505050565b606082471015610cb45760405162461bcd60e51b815260206004820152602660248201527f416464726573733a20696e73756666696369656e742062616c616e636520666f6044820152651c8818d85b1b60d21b6064820152608401610378565b600080866001600160a01b03168587604051610cd091906110cc565b60006040518083038185875af1925050503d8060008114610d0d576040519150601f19603f3d011682016040523d82523d6000602084013e610d12565b606091505b5091509150610d2387838387610d2e565b979650505050505050565b60608315610d9d578251600003610d96576001600160a01b0385163b610d965760405162461bcd60e51b815260206004820152601d60248201527f416464726573733a2063616c6c20746f206e6f6e2d636f6e74726163740000006044820152606401610378565b5081610c4b565b610c4b8383815115610db25781518083602001fd5b8060405162461bcd60e51b815260040161037891906110e8565b80356001600160a01b0381168114610de357600080fd5b919050565b60008060008060808587031215610dfe57600080fd5b843593506020850135925060408501359150610e1c60608601610dcc565b905092959194509250565b803560ff81168114610de357600080fd5b600080600060608486031215610e4d57600080fd5b83359250610e5d60208501610e27565b9150610e6b60408501610e27565b90509250925092565b600080600060608486031215610e8957600080fd5b505081359360208301359350604090920135919050565b60008060408385031215610eb357600080fd5b50508035926020909101359150565b600060208284031215610ed457600080fd5b610edd82610dcc565b9392505050565b60008060008060808587031215610efa57600080fd5b610f0385610e27565b9350610f1160208601610e27565b93969395505050506040820135916060013590565b600080600060608486031215610f3b57600080fd5b610f4484610dcc565b9250610e5d60208501610e27565b60008060408385031215610f6557600080fd5b610f6e83610e27565b9150610f7c60208401610e27565b90509250929050565b60008060008060808587031215610f9b57600080fd5b5050823594602084013594506040840135936060013592509050565b60208082526021908201527f4f6e6c79206f776e65722063616e2063616c6c20746869732066756e6374696f6040820152603760f91b606082015260800190565b634e487b7160e01b600052601160045260246000fd5b60008282101561102057611020610ff8565b500390565b60008261104257634e487b7160e01b600052601260045260246000fd5b500490565b600081600019048311821515161561106157611061610ff8565b500290565b6000821982111561107957611079610ff8565b500190565b60006020828403121561109057600080fd5b81518015158114610edd57600080fd5b60005b838110156110bb5781810151838201526020016110a3565b83811115610b645750506000910152565b600082516110de8184602087016110a0565b9190910192915050565b60208152600082518060208401526111078160408501602087016110a0565b601f01601f1916919091016040019291505056fea2646970667358221220500a68360eedc4b15dfbead0d9c2e7d75d487235a0b07eea05f32b58ce527d9b64736f6c634300080d0033",
    "linkReferences": {}
  },
  "methodIdentifiers": {
    "changeOwner(address)": "a6f9dae1",
    "getPool(uint256,uint256)": "e36e9895",
    "getPoolIndex(uint256,uint256)": "81196340",
    "insure(uint256,uint256,uint256)": "63faf6ee",
    "owner()": "8da5cb5b",
    "payClaim(uint256,uint256,uint256,address)": "942465ed",
    "pools(uint8,uint8)": "e731ee87",
    "refundInsurance(uint256,uint256,uint256,address)": "45e4767a",
    "router()": "f887ea40",
    "setPool(uint256,uint256,uint256,uint256)": "f462101e",
    "setPool(uint8,uint8,uint256,uint256)": "ae12ed00",
    "setRouter(address)": "c0d78655",
    "stake(uint256,uint8,uint8)": "82dc6bda",
    "stakedAmountsByUser(address,uint8,uint8)": "cb90a660",
    "stakingToken()": "72f702f3",
    "withdraw(uint256,uint8,uint8)": "592e19e1"
  },
  "id": 24
}